{
  "contractName": "CertificateRegistry",
  "abi": [
    {
      "inputs": [],
      "stateMutability": "nonpayable",
      "type": "constructor"
    },
    {
      "anonymous": false,
      "inputs": [
        {
          "indexed": true,
          "internalType": "bytes32",
          "name": "certificateHash",
          "type": "bytes32"
        },
        {
          "indexed": true,
          "internalType": "address",
          "name": "issuer",
          "type": "address"
        },
        {
          "indexed": false,
          "internalType": "string",
          "name": "studentId",
          "type": "string"
        }
      ],
      "name": "CertificateIssued",
      "type": "event"
    },
    {
      "inputs": [
        {
          "internalType": "bytes32",
          "name": "",
          "type": "bytes32"
        }
      ],
      "name": "certificates",
      "outputs": [
        {
          "internalType": "address",
          "name": "issuer",
          "type": "address"
        },
        {
          "internalType": "uint256",
          "name": "timestamp",
          "type": "uint256"
        },
        {
          "internalType": "bool",
          "name": "isValid",
          "type": "bool"
        },
        {
          "internalType": "string",
          "name": "studentId",
          "type": "string"
        }
      ],
      "stateMutability": "view",
      "type": "function",
      "constant": true
    },
    {
      "inputs": [],
      "name": "owner",
      "outputs": [
        {
          "internalType": "address",
          "name": "",
          "type": "address"
        }
      ],
      "stateMutability": "view",
      "type": "function",
      "constant": true
    },
    {
      "inputs": [
        {
          "internalType": "bytes32",
          "name": "_certificateHash",
          "type": "bytes32"
        },
        {
          "internalType": "string",
          "name": "_studentId",
          "type": "string"
        }
      ],
      "name": "issueCertificate",
      "outputs": [],
      "stateMutability": "nonpayable",
      "type": "function"
    },
    {
      "inputs": [
        {
          "internalType": "bytes32",
          "name": "_certificateHash",
          "type": "bytes32"
        }
      ],
      "name": "verifyCertificate",
      "outputs": [
        {
          "internalType": "bool",
          "name": "",
          "type": "bool"
        }
      ],
      "stateMutability": "view",
      "type": "function",
      "constant": true
    },
    {
      "inputs": [
        {
          "internalType": "bytes32",
          "name": "_certificateHash",
          "type": "bytes32"
        }
      ],
      "name": "getCertificateDetails",
      "outputs": [
        {
          "internalType": "address",
          "name": "issuer",
          "type": "address"
        },
        {
          "internalType": "uint256",
          "name": "timestamp",
          "type": "uint256"
        },
        {
          "internalType": "bool",
          "name": "isValid",
          "type": "bool"
        },
        {
          "internalType": "string",
          "name": "studentId",
          "type": "string"
        }
      ],
      "stateMutability": "view",
      "type": "function",
      "constant": true
    }
  ],
  "bytecode": "0x608060405234801561001057600080fd5b5033600160006101000a81548173ffffffffffffffffffffffffffffffffffffffff021916908373ffffffffffffffffffffffffffffffffffffffff160217905550610dbe806100616000396000f3fe608060405234801561001057600080fd5b50600436106100575760003560e01c8063742f06881461005c578063850c17681461008f5780638da5cb5b146100bf578063ac15f0ac146100dd578063baf75ec714610110575b600080fd5b61007660048036038101906100719190610645565b61012c565b6040516100869493929190610777565b60405180910390f35b6100a960048036038101906100a49190610645565b610211565b6040516100b691906107c3565b60405180910390f35b6100c761027f565b6040516100d491906107de565b60405180910390f35b6100f760048036038101906100f29190610645565b6102a5565b6040516101079493929190610777565b60405180910390f35b61012a6004803603810190610125919061092e565b61039e565b005b60006020528060005260406000206000915090508060000160009054906101000a900473ffffffffffffffffffffffffffffffffffffffff16908060010154908060020160009054906101000a900460ff169080600301805461018e906109b9565b80601f01602080910402602001604051908101604052809291908181526020018280546101ba906109b9565b80156102075780601f106101dc57610100808354040283529160200191610207565b820191906000526020600020905b8154815290600101906020018083116101ea57829003601f168201915b5050505050905084565b60008073ffffffffffffffffffffffffffffffffffffffff1660008084815260200190815260200160002060000160009054906101000a900473ffffffffffffffffffffffffffffffffffffffff1673ffffffffffffffffffffffffffffffffffffffff1614159050919050565b600160009054906101000a900473ffffffffffffffffffffffffffffffffffffffff1681565b60008060006060600080600087815260200190815260200160002090508060000160009054906101000a900473ffffffffffffffffffffffffffffffffffffffff1681600101548260020160009054906101000a900460ff168360030180805461030e906109b9565b80601f016020809104026020016040519081016040528092919081815260200182805461033a906109b9565b80156103875780601f1061035c57610100808354040283529160200191610387565b820191906000526020600020905b81548152906001019060200180831161036a57829003601f168201915b505050505090509450945094509450509193509193565b600160009054906101000a900473ffffffffffffffffffffffffffffffffffffffff1673ffffffffffffffffffffffffffffffffffffffff163373ffffffffffffffffffffffffffffffffffffffff161461042e576040517f08c379a000000000000000000000000000000000000000000000000000000000815260040161042590610a5c565b60405180910390fd5b600073ffffffffffffffffffffffffffffffffffffffff1660008084815260200190815260200160002060000160009054906101000a900473ffffffffffffffffffffffffffffffffffffffff1673ffffffffffffffffffffffffffffffffffffffff16146104d2576040517f08c379a00000000000000000000000000000000000000000000000000000000081526004016104c990610ac8565b60405180910390fd5b60405180608001604052803373ffffffffffffffffffffffffffffffffffffffff1681526020014281526020016001151581526020018281525060008084815260200190815260200160002060008201518160000160006101000a81548173ffffffffffffffffffffffffffffffffffffffff021916908373ffffffffffffffffffffffffffffffffffffffff1602179055506020820151816001015560408201518160020160006101000a81548160ff02191690831515021790555060608201518160030190816105a49190610c94565b509050503373ffffffffffffffffffffffffffffffffffffffff16827fe9d1f149bd22b0e56019e79155fb9c09094cc06be78083f19551fea6e46ff6c4836040516105ef9190610d66565b60405180910390a35050565b6000604051905090565b600080fd5b600080fd5b6000819050919050565b6106228161060f565b811461062d57600080fd5b50565b60008135905061063f81610619565b92915050565b60006020828403121561065b5761065a610605565b5b600061066984828501610630565b91505092915050565b600073ffffffffffffffffffffffffffffffffffffffff82169050919050565b600061069d82610672565b9050919050565b6106ad81610692565b82525050565b6000819050919050565b6106c6816106b3565b82525050565b60008115159050919050565b6106e1816106cc565b82525050565b600081519050919050565b600082825260208201905092915050565b60005b83811015610721578082015181840152602081019050610706565b60008484015250505050565b6000601f19601f8301169050919050565b6000610749826106e7565b61075381856106f2565b9350610763818560208601610703565b61076c8161072d565b840191505092915050565b600060808201905061078c60008301876106a4565b61079960208301866106bd565b6107a660408301856106d8565b81810360608301526107b8818461073e565b905095945050505050565b60006020820190506107d860008301846106d8565b92915050565b60006020820190506107f360008301846106a4565b92915050565b600080fd5b600080fd5b7f4e487b7100000000000000000000000000000000000000000000000000000000600052604160045260246000fd5b61083b8261072d565b810181811067ffffffffffffffff8211171561085a57610859610803565b5b80604052505050565b600061086d6105fb565b90506108798282610832565b919050565b600067ffffffffffffffff82111561089957610898610803565b5b6108a28261072d565b9050602081019050919050565b82818337600083830152505050565b60006108d16108cc8461087e565b610863565b9050828152602081018484840111156108ed576108ec6107fe565b5b6108f88482856108af565b509392505050565b600082601f830112610915576109146107f9565b5b81356109258482602086016108be565b91505092915050565b6000806040838503121561094557610944610605565b5b600061095385828601610630565b925050602083013567ffffffffffffffff8111156109745761097361060a565b5b61098085828601610900565b9150509250929050565b7f4e487b7100000000000000000000000000000000000000000000000000000000600052602260045260246000fd5b600060028204905060018216806109d157607f821691505b6020821081036109e4576109e361098a565b5b50919050565b7f4f6e6c792074686520636f6e7472616374206f776e65722063616e2063616c6c60008201527f20746869732066756e6374696f6e2e0000000000000000000000000000000000602082015250565b6000610a46602f836106f2565b9150610a51826109ea565b604082019050919050565b60006020820190508181036000830152610a7581610a39565b9050919050565b7f436572746966696361746520616c7265616479206578697374732e0000000000600082015250565b6000610ab2601b836106f2565b9150610abd82610a7c565b602082019050919050565b60006020820190508181036000830152610ae181610aa5565b9050919050565b60008190508160005260206000209050919050565b60006020601f8301049050919050565b600082821b905092915050565b600060088302610b4a7fffffffffffffffffffffffffffffffffffffffffffffffffffffffffffffffff82610b0d565b610b548683610b0d565b95508019841693508086168417925050509392505050565b6000819050919050565b6000610b91610b8c610b87846106b3565b610b6c565b6106b3565b9050919050565b6000819050919050565b610bab83610b76565b610bbf610bb782610b98565b848454610b1a565b825550505050565b600090565b610bd4610bc7565b610bdf818484610ba2565b505050565b5b81811015610c0357610bf8600082610bcc565b600181019050610be5565b5050565b601f821115610c4857610c1981610ae8565b610c2284610afd565b81016020851015610c31578190505b610c45610c3d85610afd565b830182610be4565b50505b505050565b600082821c905092915050565b6000610c6b60001984600802610c4d565b1980831691505092915050565b6000610c848383610c5a565b9150826002028217905092915050565b610c9d826106e7565b67ffffffffffffffff811115610cb657610cb5610803565b5b610cc082546109b9565b610ccb828285610c07565b600060209050601f831160018114610cfe5760008415610cec578287015190505b610cf68582610c78565b865550610d5e565b601f198416610d0c86610ae8565b60005b82811015610d3457848901518255600182019150602085019450602081019050610d0f565b86831015610d515784890151610d4d601f891682610c5a565b8355505b6001600288020188555050505b505050505050565b60006020820190508181036000830152610d80818461073e565b90509291505056fea2646970667358221220838d738c9633bc5bbc3b761edbb1d769b87a9941085b6a1f4e520a8aa864a21064736f6c63430008130033",
  "immutableReferences": {},
  "source": "// SPDX-License-Identifier: MIT\npragma solidity ^0.8.0;\n\n/**\n * @title CertificateRegistry\n * @dev Manages the secure registration and verification of student certificate hashes on the blockchain.\n */\ncontract CertificateRegistry {\n    // Structure to hold certificate data on the blockchain\n    struct Certificate {\n        address issuer;          // The address that issued the certificate (Admin)\n        uint256 timestamp;       // The time of issuance\n        bool isValid;            // Always true if registered\n        string studentId;        // Off-chain reference to the student's unique ID\n    }\n\n    // Mapping: Certificate Hash (bytes32) => Certificate Details (struct)\n    mapping(bytes32 => Certificate) public certificates;\n\n    // Event to log when a certificate is successfully issued\n    event CertificateIssued(bytes32 indexed certificateHash, address indexed issuer, string studentId);\n\n    // Only the contract owner (the Admin account that deployed the contract) can issue certificates\n    address public owner;\n\n    constructor() {\n        owner = msg.sender;\n    }\n\n    // Modifier to restrict access to the contract owner\n    modifier onlyOwner() {\n        require(msg.sender == owner, \"Only the contract owner can call this function.\");\n        _;\n    }\n\n    /**\n     * @dev Issues a new certificate by storing its hash and student ID on the blockchain.\n     * The hash must be generated off-chain from the content of the PDF certificate.\n     * @param _certificateHash The SHA-256 hash of the certificate PDF (prefixed with 0x).\n     * @param _studentId The unique identifier of the student.\n     */\n    function issueCertificate(bytes32 _certificateHash, string memory _studentId) public onlyOwner {\n        // Ensure this hash has not been issued before\n        require(certificates[_certificateHash].issuer == address(0), \"Certificate already exists.\");\n\n        certificates[_certificateHash] = Certificate({\n            issuer: msg.sender,\n            timestamp: block.timestamp,\n            isValid: true,\n            studentId: _studentId\n        });\n\n        emit CertificateIssued(_certificateHash, msg.sender, _studentId);\n    }\n\n    /**\n     * @dev Checks if a certificate hash is registered (i.e., valid) by checking the issuer address.\n     * @param _certificateHash The SHA-256 hash to check.\n     * @return A boolean indicating validity.\n     */\n    function verifyCertificate(bytes32 _certificateHash) public view returns (bool) {\n        // If the issuer address is not the zero address, the certificate is registered and valid.\n        return certificates[_certificateHash].issuer != address(0);\n    }\n\n    /**\n     * @dev Retrieves all stored details for a specific certificate hash.\n     * @param _certificateHash The SHA-256 hash of the certificate.\n     * @return issuer The address that issued the certificate.\n     * @return timestamp The issuance timestamp.\n     * @return isValid The current validity status (always true if registered).\n     * @return studentId The off-chain ID of the student.\n     */\n    function getCertificateDetails(bytes32 _certificateHash) public view returns (\n        address issuer,\n        uint256 timestamp,\n        bool isValid,\n        string memory studentId\n    ) {\n        Certificate storage cert = certificates[_certificateHash];\n        return (cert.issuer, cert.timestamp, cert.isValid, cert.studentId);\n    }\n}",
  "sourcePath": "C:\\Users\\Irfan Ahamed\\Downloads\\Blockchain Certificate\\Code\\contracts\\CertificateRegistry.sol",
  "compiler": {
    "name": "solc",
    "version": "0.8.19+commit.7dd6d404.Emscripten.clang"
  },
  "schemaVersion": "3.4.16",
  "updatedAt": "2026-01-15T09:12:00.220Z",
  "networkType": "ethereum",
  "devdoc": {
    "details": "Manages the secure registration and verification of student certificate hashes on the blockchain.",
    "kind": "dev",
    "methods": {
      "getCertificateDetails(bytes32)": {
        "details": "Retrieves all stored details for a specific certificate hash.",
        "params": {
          "_certificateHash": "The SHA-256 hash of the certificate."
        },
        "returns": {
          "isValid": "The current validity status (always true if registered).",
          "issuer": "The address that issued the certificate.",
          "studentId": "The off-chain ID of the student.",
          "timestamp": "The issuance timestamp."
        }
      },
      "issueCertificate(bytes32,string)": {
        "details": "Issues a new certificate by storing its hash and student ID on the blockchain. The hash must be generated off-chain from the content of the PDF certificate.",
        "params": {
          "_certificateHash": "The SHA-256 hash of the certificate PDF (prefixed with 0x).",
          "_studentId": "The unique identifier of the student."
        }
      },
      "verifyCertificate(bytes32)": {
        "details": "Checks if a certificate hash is registered (i.e., valid) by checking the issuer address.",
        "params": {
          "_certificateHash": "The SHA-256 hash to check."
        },
        "returns": {
          "_0": "A boolean indicating validity."
        }
      }
    },
    "title": "CertificateRegistry",
    "version": 1
  },
  "userdoc": {
    "kind": "user",
    "methods": {},
    "version": 1
  }
}